:10000000005000207D28000077280000792800009B
:100010007B2800007B2800007B28000000000000F7
:100020000000000000000000000000007B2800002D
:100030007B280000000000007B2800007B280000D7
:10004000991500007B2800007B2800007B28000019
:1000500071110000591400007B2800007B2800006B
:100060007B280000553200007B2800007B28000020
:100070007B2800007B2800007B2800007B280000F4
:100080007B2800007B2800007B2800007B280000E4
:100090007B2800007B2800007B2800007B280000D4
:1000A0007B2800007B2800007B2800007B280000C4
:1000B0007B2800007B2800007B2800007B280000B4
:1000C0007B2800007B280000F8B5082800F2C080DB
:1000D000DFE800F0050C272E383E7F91A4000020B9
:1000E0005D4902F0A7FC012001F00AFE5B4C0120F3
:1000F00022465B4902F0FEFC2368013B182B06D91F
:100100000120584902F096FC002001F03FFF152322
:100110000021554A013B12D1544A0220136001F0DC
:10012000EFFD0220524902F085FC032001F0E8FDBA
:1001300004204D4A4F4902F0DDFC01F071FB02F84A
:10014000011BE7E7484A4B49052002F0A9FCF4E708
:10015000022702F05FF801220024404B464D1B6845
:10016000464E2B70464B47491F70474B000C1A7088
:10017000464B30701C70464B1C2209681C700520D1
:10018000234602F0CFF9434B048093F90120877096
:1001900002701B88404A437033782978C3703F4B04
:1001A000314D1B6800F119060371831D136003466E
:1001B00003F8051F2D490C60B34216D100F11A0354
:1001C00014B1142413600C6002F0C2F8062001F090
:1001D00097FD2E4B1B7813B1082001F091FD0721EC
:1001E00040F6B83001F0DCFDA7E715F8014B03F845
:1001F000014F0124E0E7254B1B7813B1082001F0E3
:100200007FFD0024204B072025491C7002F012FCC2
:100210000122244B20461A6001F0B8FE00221A4B3E
:100220001A701B4B1B78012B0BD108201E4902F0C2
:1002300001FC01221B4B00201A60BDE8F84001F0D0
:10024000A5BE0D4B19491A78082002F029FCF0E7E9
:10025000BDE8F84001F0CCBCB44D0000880500209A
:1002600093520000CC4D0000F9050020C405002089
:10027000EA4D00008F500000ED050020EE05002043
:10028000EF05002000000020EC05002018060020EB
:100290002D060020BC050020DC050020D405002030
:1002A000FC4D0000100100201E4E00002C4E0000EE
:1002B000F8B5072800F2AB80DFE800F0040B1F263A
:1002C000396E7B8E0020544902F0B4FB012001F00E
:1002D00017FD524C01202246514902F00BFC2368C5
:1002E000013B182B06D901204E4902F0A3FB002048
:1002F00001F04CFE022001F003FD02204A4902F009
:1003000099FB032001F0FCFC484C032022464449A1
:1003100002F0F0FB2368272B06D90320444902F0A2
:1003200089FB002001F032FE042001F0E9FC0425E5
:1003300001F070FF01220024384B3E4E1B683E4FF7
:1003400033703E4B3E491D703E4B000C1A703E4BC5
:1003500008221C703D4B09681C703D4B38701C70A6
:100360002846234602F0DEF83A4B0480B3F9001029
:1003700093F90130C17083703B7805714371364B3E
:100380001B6883713378C371284B1B68037201F0BB
:10039000DFFF052001F0B4FC2B4B1B7813B10720C5
:1003A00001F0AEFC062140F6B83001F0F9FC01F096
:1003B00037FA254B1B7813B1072001F0A1FC00246C
:1003C000204B062025491C7002F034FB0122244BEF
:1003D00020461A6001F0DAFD00221A4B1A70154B04
:1003E0001A781A4B1B78012B0CD10720184B1D498A
:1003F00002F056FB01221A4B00201A60BDE8F840BB
:1004000001F0C4BD1849072002F04AFBF2E7BDE83D
:10041000F84001F0EDBB00BFB44D000084050020A2
:1004200093520000CC4D0000544E000010060020F6
:100430006B4E0000ED050020EE050020EF050020CA
:1004400000000020EC050020180600202D060020EA
:1004500019060020BC050020D4050020FC4D00003A
:1004600030060020824E0000A14E000070B5062824
:1004700072D8DFE800F0040C383F495369000023CC
:10048000374A01201360374A136001F039FC354ABE
:1004900035491368096801331360012000230822DD
:1004A00002F040F80024314B04804480B3F900206E
:1004B00093F901302E4D2F4E03714271C31D84718B
:1004C0002B60306001F0A6FE2B68000C2A4A1870E1
:1004D000126830685A709C70DA1C2A6001F038FF8C
:1004E000022001F00DFC032140F6B83001F058FC69
:1004F00001F096F91B4B1B68012B02DD042001F073
:10050000FFFB012001F0FCFB00221C4B04201C49D6
:100510001A6002F0C5FA052001F0F2FB174C104BEF
:1005200022681B689A4202DB062001F0E9FB23687F
:10053000144A0520D25C144902F0B2FA236805205F
:100540000133236001F0DCFB0122104B00201A6014
:10055000BDE8704001F01ABDBDE8704001F048BB35
:100560009C0500209805002000000020BC0500200C
:10057000F4050020E4050020D4050020D00500206B
:10058000C94E0000A0050020D84E000094050020B0
:1005900070B5072800F28580DFE800F0040B131A1D
:1005A000224F5C6C0020414902F044FA012001F026
:1005B000A7FB01203E4A3F4902F09CFA022001F0CD
:1005C0009FFB02203C4902F035FA032001F098FB22
:1005D00003203A4A374902F08DFA042001F090FBDB
:1005E00001F018FE0024324B354D1B68354E2B7040
:1005F0003549364B000C0822096830701C70042005
:10060000234601F08FFF324B0480B3F9001093F9B9
:100610000130C170837003230371337844724371D6
:100620002C4B1B6883712B78C371244B1B6803729E
:1006300001F08EFE052001F063FB244B1B7813B103
:10064000072001F05DFB062140F6B83001F0A8FB61
:1006500001F0E6F81D4B1B7813B1072001F050FBA9
:1006600006201D4902F0E6F901221C4B00201A6009
:1006700001F08CFC1A4B1B78012B0BD10720194978
:1006800002F0D8F90122154B00201A60BDE8704035
:1006900001F07CBC0A4B14491A78072002F000FADA
:1006A000F0E7BDE8704001F0A3BA00BFB64D00000E
:1006B0008C05002093520000564E000014060020C6
:1006C0007805002080050020000000208105002022
:1006D000BC050020D4050020FC4D00007C05002056
:1006E00082050020DC4E0000ED4E00002DE9F84FA1
:1006F0000B2800F2AC82DFE810F00C0016009F001F
:10070000B600DA001C018301AA01C301EA01070255
:100710004102934B0020196801F0C4FE914B186010
:10072000012001F0EDFA8F4D8F4B28688F4E821C0F
:100730001A604179438802793170DFF834828D4E36
:100740008D4C90F806C090F807E08C4F5BBA9BB2D6
:10075000052A86F800C0DFF828928A4EC8F80030D3
:10076000227087F800E034D1B9F900A0027ADFF8EE
:1007700018B253458BF8002026D133689E4523D10B
:10078000824B1B7803B3824B1B7863451CD1814B92
:100790001B788B4218D101217F4B1A707F4B197047
:1007A0007F4B1B78042B0FD18A420DD17D4A00F17B
:1007B0000803114600F11C0C13F801EF9C4502F8E8
:1007C00001EBF9D10023CB7401F0C2FD002001F050
:1007D00097FAB9F90020D8F800309A4203D13A7854
:1007E00033689A4205D0286801F0B2FD002001F07C
:1007F00087FA2378022B02D1052001F081FA2378B1
:10080000032B02D1072001F07BFA2378042B02D1BD
:10081000092001F075FA237813B9022001F070FA6B
:100820002378012B02D1042001F06AFA286801F034
:100830008FFD002001F064FA514B4A4CB3F90020BF
:100840004B4B1B689A4202D14C4B1B782BB1206852
:1008500001F07EFD002001F053FA206801F078FDE0
:10086000032001F04DFA3E490023072209680320C6
:1008700001F058FE0024424A0480B2F9001092F9B7
:100880000120C170827001220271384A00F1080112
:10089000127842713B4A12688271434A1160354AAC
:1008A0001278C27101F054FD204601F029FA344B50
:1008B0003E48B3F900202E4B1B689A424CD12F4B77
:1008C0001A78304B1B689A4246D1394B1B78002B63
:1008D00042D0264B1A78374B1B789A423CD10023E2
:1008E0003549364A0D682349354C0F78194603605F
:1008F00013609D421E460CDC01B113602E4A136842
:10090000132B0FDC1B4908782D49C85401331360A1
:1009100008E014F801CB0133BC451BD101B11660CE
:10092000012303600F4B186801F012FD002001F055
:10093000E7F94FF0FF33234C1C27236000231D46AB
:100940001E49214A0B60282B18463FD1002D49D063
:100950000B6047E00121CCE70368002BE2D1CDE733
:1009600000000020E0050020D80500202E06002011
:10097000E805002034060020CC050020F805002002
:10098000BC050020D405002035060020EC05002021
:10099000ED050020EE0500202D06002018060020A1
:1009A000EF05002019060020F0050020B805002002
:1009B00090050020B40500209C050020C005002003
:1009C000A00500203C0600201401002000FB077653
:1009D000164416F81C6C431C002E40F0F78005B13D
:1009E000086020602668002E80F2F28002229A4B76
:1009F0001A709A4B186801F0ABFC062001F080F9E0
:100A0000974900230B220968062001F08BFD002482
:100A1000944A0480B2F9001092F90120C1708270EA
:100A200005220271904A00F10901127842718F4A41
:100A3000126882718E4A1278C2718E4A1160864A9B
:100A40001278027201F084FC204601F059F98A4BB9
:100A50008A4A1B6880489B79272B137007D81C2271
:100A600053438749CA5CCC18002A40F0DB8003233B
:100A700003707A4B186801F06BFC082001F040F914
:100A8000774900230B220968082001F04BFD002460
:100A9000744A0480B2F9001092F90120C17082708A
:100AA00005220271704A00F10901127842716F4A01
:100AB000126882716E4A1278C2716E4A1160664A7B
:100AC0001278027201F044FC204601F019F96A4BD9
:100AD0006A4A1B689B79272B137000F2B0801C2296
:100AE0005343674AD35C002B0CBF042301235A4CA9
:100AF00023705A4B186801F02BFC2378012B0CBF94
:100B00000A200B2001F0FCF8554900231F22096838
:100B10000A2001F007FD0023524A0380B2F90010B9
:100B200092F90120C1708270052202714E4A514D26
:100B30001278014642714D4A1C271268514C82714D
:100B40004B4A23601278C27100F109022A60012227
:100B500001F8082F494A1678494A07FB0622C619A8
:100B600008328E426DD100F11D0213B114232A60A8
:100B7000236001F0EDFB002001F0C2F80B223849A0
:100B800000231046096801F0CDFC0024354A04809A
:100B9000B2F9001092F90120C17082700522027131
:100BA000314A00F1090112784271304A12688271AB
:100BB0002F4A1278C2712F4A11600422027201F08A
:100BC000C7FB2046BDE8F84F01F09AB80125BAE608
:100BD0001C2301247343D454254CD01824780833A3
:100BE0004470294C1344A46844600020224C0860DF
:100BF0002468651D1934A5420ED108B114230B6079
:100C00001C2303FB06220023D376204A13680133FA
:100C100013600122104BEBE615F8010F03F8010BEE
:100C20000120E8E70022CA5262602272174A136864
:100C3000002BC4BF03F1FF331360012318E7042323
:100C400055E712F8013B01F8013F012389E7BDE8B0
:100C5000F84F00F0CDBF00BF35060020E0050020B2
:100C600000000020BC0500202E060020D405002036
:100C700034060020F0050020D80500200C010020DB
:100C800014010020C0050020002009403806002083
:100C900013B5172800F25581DFE810F01800440062
:100CA00055005C0066006F009800A100AA00B30028
:100CB000B900C200C800D100DB00DE00E500ED0095
:100CC000F700FE0006010F0119013B01FA21002087
:100CD00002F0F6FA9D49002001F0D2FB00224FF607
:100CE000FF70114601F06CFB994C0022042120603A
:100CF00001F08CFC2368002B04DA964801F0E8F937
:100D000000F0C2FE00212822934B94481960944BB6
:100D10001A60944B1960944B196001F0B3F90120EB
:100D200000F0EEFF282301938B4B904A1B680120B3
:100D300000938F4BB2F900201B688E4901F0B0FE82
:100D4000022000F0DDFF02208B4901F073FE03203A
:100D500000F0D6FF3023894A03208949137001F03F
:100D6000C9FE042000F0CCFF844B04201A7885498A
:100D700001F096FE052000F0C3FF804B1B7803F0C6
:100D8000DF03472B04D10F2000F0BAFF00F048FD2D
:100D90004E2B01D11220F7E7462B01D10C20F3E7AF
:100DA000432B01D10620EFE7442B01D10A20EBE7CA
:100DB000522B01D10820E7E7532B01D11520E3E79F
:100DC000452B01D11720DFE70120DDE70021654B2E
:100DD0006D48196001F056F9072000F091FF614B52
:100DE0001B68012BF0D00721642000F0D9FFCDE76C
:100DF00000215D4B6548196001F044F9092000F0BD
:100E00007FFF594B1B68012BDED00920BCE7002176
:100E10005F4B6048196001F035F90B2000F070FF5E
:100E20005B4B1B68012BCFD00B20ADE700215A4B49
:100E30005A48196001F026F90D2000F061FF564B69
:100E40001868012801D100F05BFF0E21642000F03A
:100E5000A7FF0D2000F054FF0F20514901F0EAFDDB
:100E6000102000F04DFF1020404A4E4901F042FE94
:100E7000112000F045FF3D4B1120B3F900204A49F5
:100E800001F00EFE012000F03BFF1220474901F067
:100E9000D1FD132000F034FF1320354A414901F001
:100EA00029FE142000F02CFF314B14201A683E4913
:100EB00001F0F6FD012000F023FF00223C4B15203D
:100EC0003C491A6001F0B6FD162000F019FF384CBD
:100ED000234B22681B689A4206DB1620364901F034
:100EE000A9FD012000F00CFF1C2322683349534365
:100EF000C81808330B440193437831490093436881
:100F0000162001F0CDFD236816200133236000F088
:100F1000F7FE00231946104A1360284A0133282B94
:100F2000117051705160117202F11C02F6D1224908
:100F3000172001F07FFD012002B0BDE8104000F055
:100F4000DFBE02B0BDE8104000F052BE0C5C0000F5
:100F500000000020134F000038060020ED060000BE
:100F6000C80500201001002030060020BC0500202C
:100F7000D40500202D4F0000534F00000D0100202C
:100F80001B5000001E500000C9000000B10200000C
:100F90007C05002091050000940500206D040000F0
:100FA0002350000093520000345000003B500000DA
:100FB000740500204B500000385000001401002040
:100FC000755000000146014800F034BF591300007D
:100FD00082B0ADF80600BDF806309BB20BB902B086
:100FE000704704231A46013B9BB2002AFAD1BDF890
:100FF0000630013B9BB2ADF80630ECE707B5ADF823
:101000000600BDF806309BB213B903B05DF804FBCF
:1010100040F2E730FFF7DCFFBDF80630013B9BB242
:10102000ADF80630EDE7000038B5C307044605D536
:101030000C4BDA78012A84BF0122DA704FF0805518
:10104000D5F8B83120465B699847D5F8B8312046C5
:101050005B6B98470128F8D1024B586804435C60E9
:1010600038BD00BF6406002038B54FF08055D5F874
:10107000B83104469B699847D5F8B83120465B6B78
:1010800098470228F8D114F0010F074B06D0997841
:10109000DA78914282BF9A78D2B2DA70586820EA40
:1010A00004045C6038BD00BF640600200A4608B531
:1010B0000146104801F00CF872B640260E4C80250F
:1010C0000E49C4F89060C4F890500B780B78C82093
:1010D0006FF307130B70FFF791FFC4F8A060C4F81B
:1010E000A0500B780B78C8206FF307130B70FFF735
:1010F00085FFE4E7835000000020024064060020E2
:1011000010B50B4B1C880B4B18880B4B001B84B283
:101110001C8002F0F5FD0122000C084B40EA014062
:1011200000EB84109861064BC3F8802210BD00BF0D
:10113000600600205C0600204806002000200940D0
:1011400000002443002310B5074CC4F8C03202F05D
:10115000D7FD000C054B40EA0140403018620123E6
:10116000C4F8C03210BD00BF000024430020094075
:1011700010B53E4B586800F00112C4035A6044D5C4
:101180003B4B1968002956D00A88002A51D0013AF1
:101190000A8000225C6894B1218811B100220139D3
:1011A00021809C685CB1218811B100220139218025
:1011B000D96821B10B8813B10022013B0B802D4B64
:1011C000197809094CD059784A1CD2B25A70E1B941
:1011D0001A7812F0080F1A782FD0D10642BF40219A
:1011E000254AC2F890101A78920642BF8021224AFE
:1011F000C2F890101A781A781A786FF3C3021A702E
:101200001A78520701D5C8225A70C30710D5002199
:101210001A4B1B4A1B48C3F880120388148811809C
:101220002344144A9BB20380137843F002031370E3
:1012300010BD0122AEE70122C1E7D40642BF402122
:101240000D4AC2F8A0101A78910642BF80210A4ABE
:10125000C2F8A0101A781A781A7842F00802CEE77D
:10126000002AD2D0054BC3F8C012CEE700200940B7
:101270006C06002064060020002002400000244389
:10128000480600205E060020F8B500260F4B104FE0
:10129000C3F880623D889DB1A0B10E4B9C6902F0FD
:1012A0002FFD800D40EA8120C4F38F1480B2241AF0
:1012B0002C1B3546084B3E801A881444A4B21C806F
:1012C0002846F8BD0125C3F88052F9E70000244301
:1012D00048060020002009405E06002070B54FF04F
:1012E00080560F4CD6F8D0310546DB68204698472B
:1012F0006422D6F8D03120465E686A4360230949EB
:10130000B047E36A012043F01003E362236B43F428
:10131000407343F001032363034B1D8070BD00BF86
:1013200000100040006CDC0250060020074B08490A
:10133000DA6A42F01002DA6212225A631A6B22F45D
:1013400040421A63034B1888FFF7C8BF00100040E3
:10135000400600205006002001302DE9F0410D46E6
:10136000144603286AD8DFE800F04D1043563B6866
:10137000013E05F8013B16B1BB69D806F7D5A64278
:1013800008D0A41B2046BDE8F08116464FF08058D7
:101390002C4FF0E7D8F8B03115205B699847BB694E
:1013A000D90605D4D8F8B03115201B699847E2E773
:1013B000254A937943F080036FF001049371E1E7CC
:1013C00015F8013B013E3B6016B1BB699A06F7D5A3
:1013D000A642D6D1D8F8B03115205B699847BB69D1
:1013E0009B060AD4D8F8B03115201B699847EBE763
:1013F00016464FF08058134FE6E7134A937943F0AF
:101400004003D9E74FF08053D3F8B03115201B6962
:1014100098470024B6E7012A09D10B492888FFF72D
:101420005DFF0028AED103200849FFF73FFE022AE6
:1014300004D1074B01241B880B80A3E70220054938
:10144000F3E700BF0010004040060020925000006B
:10145000500600209650000040F2F27230B5294B41
:101460005A649B69DC0623D4274B9A7910061FD552
:101470009A7902F07F029A71244A137843F00203AA
:101480001370234B1A689AB11046002330F8101BD2
:1014900001F00701994209DD50F83340013314F59A
:1014A000817FF7D102EBC3039B881380D26AEAE7FE
:1014B000144B9B69990624D4134B9A79520620D574
:1014C0006FF480749A7902F0BF029A710F4A137810
:1014D00043F0020313700E4B1A6892B110460023BA
:1014E00030F8101B01F00701994208DD50F8335025
:1014F0000133A542F8D102EBC3039B881380D26A63
:10150000EBE730BD001000404006002064060020DC
:101510005406002070B572B601210D4E0D4D338872
:101520000D4C1B0A01FA03F2C5F8E020DA017388BA
:1015300002F181721B0A9940DB0103F1817322439E
:1015400023431060C5F8E010186062B670BD00BF9C
:101550002E5200000020024048000042F0B572B652
:1015600000220126094F0A4C0A49BB5C013203F0F4
:101570007F0306FA03F5DB0103F181730B43042AB1
:10158000C4F8E0501860F0D162B6F0BD29520000F6
:10159000002002404800004238B5254BD3F8E03027
:1015A00013F4C04F1ED00020FFF7B4FF214B224C94
:1015B0001A6892B11046002330F8101B01F00701A1
:1015C000994208DD50F833500133A542F8D102EBBF
:1015D000C3039B881380D26AEBE7184A137843F061
:1015E00002031370124BD3F8E03013F0F05F1DD0FC
:1015F000104B134C186890B10146002331F8102BA2
:1016000002F007029A4208DD51F833500133A54237
:10161000F8D100EBC3039B880380C06AEBE7FFF7B8
:101620009DFF064A137843F00203137038BD00BFD4
:1016300000200240540600202E52000064060020C4
:10164000295200002DE9F0414FF080540420FFF7AB
:10165000EBFCD4F8B8314FF4A060DB699847D4F8BC
:10166000B8314FF4A0605B6A9847D4F8B8314FF4B2
:10167000A060DB6A012598470020504B504FDFF8EF
:1016800044C1DFF844E1514C9D6257F8042B01300E
:10169000C2F3C443990001F1804606F5012602EA2F
:1016A0000C08C6F80080160644BF41EA0E010D6022
:1016B00005FA03F352064CBFC4F89030C4F8A030CA
:1016C0001128E2D1402580264149C4F89050C4F841
:1016D00090600B780B78C8206FF307130B70FFF73F
:1016E0008DFCC4F8A050C4F8A0600B780B78394E7C
:1016F0006FF30713C8200B70FFF780FC756201259C
:101700004FF08054344B1420C3F8C852334B33602D
:10171000D4F8B0311B69984700F0ECFBD4F8B03135
:1017200010201B6998470220FFF77EFCD4F8B831DF
:101730004FF40070DB699847D4F8B8314FF400706B
:101740005B6A9847D4F8B8314FF40070DB6A984769
:1017500060221A4B9D62224B1A80FFF7E7FD01F0D1
:1017600055F901F05DF903F0EDF9082818D11D4B8A
:10177000DD60A3F580439D60F36A0020FFF722FC43
:10178000194A1520936B43F0700393634FF0805315
:10179000D3F8B0311B699847BDE8F041FFF7D2BCE0
:1017A000124800F095FC124800F092FC11491248D2
:1017B000C1F5984189B200F08BFCDEE7002008609B
:1017C000105100003F7F077F001A44420020024072
:1017D00064060020002009400000244303000500A7
:1017E0005006002000400940001000403A50000020
:1017F0009A50000058070020E650000003280346D6
:1018000028BF0323054ADBB20128937004D951682D
:1018100011F0010F18BF0123D37070476406002038
:101820002DE98848874B00AF83F30888A3F58053E0
:10183000D3F8FC2B844B9A422AD1DFF81082002186
:101840004FF6FF7000F0F6F9814B1B68C8F80030C6
:10185000D8F8003003BB7F4CDFF8FCA172B62378C8
:101860009807C3F3400500F1E780DAF80030E2782A
:101870000133012ACAF80030D3B217D0022B3DD071
:10188000002B40F0AB8030BF62B600BF00BFE5E781
:101890000B207249FFF70AFC5A682AB1188804071E
:1018A00002D100099047CAE7DB6ACFE76C4B2020E2
:1018B000D3F88C2142F00102C3F88C21D3F8242202
:1018C00042F00302C3F824224FF08053D3F8B8311A
:1018D0009B699847634BDB6A4FF0E023D3F8102DE8
:1018E00042F00402C3F8102D30BFD3F8102D22F0BF
:1018F0000402C3F8102D5B4BDB6AC5E701264FF0ED
:101900008059594BDFF864B1DD60CBF80052A3F584
:101910000053DA6A564A96626068D9F8B82140F0F6
:10192000200092699047534A4D4BC2F88061D3F82A
:101930002422032122F00302C3F82422D9F8D8215B
:101940004D4852689047284602F0BCFF454BDB6A81
:101950004FF0E023D3F8102D42F00402C3F8102D0D
:1019600030BFD3F8102D314622F00402C3F8102DF9
:10197000D9F8D83140485B689847394AD2F82432C0
:1019800043F00303C2F82432CBF8006202F5704240
:1019900053699906FCD54FF08055D5F8B831606889
:1019A0005B699847D5F8B83160685B6B9847012848
:1019B000F8D100222E4B98622E4BC3F880212A4B7F
:1019C000D860A3F50053DB6A03F08CF8FFF7AEFC98
:1019D0002A4A936B43F07003936355E74FF08053AB
:1019E000D3F8A0310120DB6898474FF03F31244BFA
:1019F0001A6922F001021A611A6C22F480721A64C8
:101A0000204A11605160A2F58052D16A17491D64C5
:101A1000C1F8205401219961D26A5A699206FCD416
:101A20000122144B3720C3F888214FF08053D3F89C
:101A3000B8319B6998474FE723786FF341032370D0
:101A400062B6FCE60050002079B778A7580600205F
:101A500054060020640600204C060020FD500000C3
:101A600000200840002009400040094000002243B7
:101A700000200860000004430040034000100040C4
:101A80000010094000300940002408B5084B0948FF
:101A9000C3F8804200F01CFB4FF4FA70FFF7AEFA77
:101AA0000220FFF7ABFE044B1C60FFF7B9FE00BF3E
:101AB00000002443005100005406002010B5134BD1
:101AC0001349144A43F8041B9342FBD14FF080544E
:101AD000FFF7B8FD00F0CEFED4F8843129210020B4
:101AE0001B689847D4F8843120211B68012098474F
:101AF0000021094800F0C6FA084B002118601020A8
:101B000000F04EF962B6FFF78BFE00BFFC4B0020E1
:101B100079B778A7BC4F0020910C00005806002030
:101B200070B50D4B46681A68AAB1144634F8101BFC
:101B3000002301F0070101E0B54206D0994208DD1B
:101B400054F833500133A842F6D102EBC3039B880B
:101B50001380D26AE8E770BD540600201D4A30B5F4
:101B6000144613683BB923681A4A53BB03601A4BE7
:101B70001060436030BD53E90115013103EB810171
:101B800088420BD1156050F8040C53F8041C014432
:101B90001846013143F8041C1B68E3E750F8041CA5
:101BA000013100EB81018B4203BF156050F8041C2A
:101BB00053F8045C1A4602BF4919013140F8041C6D
:101BC000EAE753F8044C50F8041C8C42CED21A4673
:101BD0001B68CAE790060020AFDEAFDE034B9A69B0
:101BE0001207FCD4C0B21860704700BF001000405C
:101BF000072008B50149FFF759FA00BF545100000A
:101C0000084A03461146002010B552F8044B2CB187
:101C100001300428F9D10449FFF748FA41F820308F
:101C200010BD00BF6C0600205A5100000180FFF774
:101C300089BA0000F8B504460846FFF725FB0028DE
:101C400054D12B4B2B4E1988328889B28A422A49AB
:101C500003D8088880B282420DD21D880888ADB2B0
:101C600080B2854236D2188880B2824203D9088871
:101C700080B282422ED3214A106818B918880444D1
:101C800034802CE005882A071BD51F884288BFB204
:101C9000BA4203D80F88BFB2BA420FD2B3F800C01D
:101CA0000F881FFA8CFCBFB2BC450CD21F88BFB294
:101CB000BA4203D90F88BFB2BA4204D325F00F0548
:101CC0000580C06AD9E71D88521B92B2944228BF92
:101CD0001446F6E71888121A92B29442CED91B889D
:101CE0009BB20B80BDE8F840FFF70ABAF8BD00BF11
:101CF0005E0600205C0600206006002054060020DE
:101D000008B5034B00011B681880FFF789FD00BF71
:101D10005806002010B50A4B1C68238813F0040FE6
:101D200003F0070203D005200649FFF7BFF904EBD3
:101D3000C2020901013391811061238010BD00BFEF
:101D4000580600205F51000030B50B4B1A6892B165
:101D50001446002334F8101B01F00701994208DDF6
:101D600054F8335001338542F8D102EBC3039B880A
:101D70001380D26AEBE730BD5406002010B504464C
:101D8000064B1B680BB91C4604E0A34204D1204655
:101D9000FFF7C0FF204610BDDB6AF3E754060020C2
:101DA00038B504460A4D2A68138803F0070343EA4E
:101DB000011313800121FFF73DFF064B18882B68A4
:101DC00004445C802A68138843F00803138038BDFC
:101DD0005806002060060020034610B9054B18681D
:101DE0007047054A106800B9704742689A42FBD0B4
:101DF000C06AF8E758060020540600200346002079
:101E00001A5C02B970470130FAE7013811F8013B5A
:101E100000F8013F002BF9D1704701380A44914284
:101E200000D1704711F8013B00F8013FF7E702F0DD
:101E300069BF000008B519B103200549FFF736F95D
:101E4000044B1A6812B104200149F7E7186008BD75
:101E500062510000800600202DE9F8430446164632
:101E60001D46BDF8208021B9DFF88090D9F80030F8
:101E70001BB901201E49FFF719F9B8F1000F28D04E
:101E80004246294630469847002823DA411C4FF63F
:101E9000FF7308D19C421CD02146A6F58170FFF744
:101EA00039FFFFF7BDFC821C16D19C42D9F8009087
:101EB0000AD02146A6F58170FFF72CFF424629463D
:101EC0004FF0FF30C847ECE7424629464FF0FF305D
:101ED000C8470020BDE8F8839C42FAD0C0F57F4097
:101EE000FE30214680B2FFF75BFFDAE78006002074
:101EF000675100000D4A08B5C2F1005303F598433D
:101F00009B08591EFF2903D804200949FFF7CEF882
:101F10000849101D086000200749023B1360C2E910
:101F20000101064A1360064A136008BD58070020E5
:101F30006A51000090060020AFDEAFDE840600206C
:101F40008C06002008B5C8B150F8043C002B03DB18
:101F500006200B49FFF7AAF80A4903F100430A6873
:101F600040F8043C13440B60FFF7F8FD0648037883
:101F700023B1FFF7E9FE0378013B037008BD00BF02
:101F80006F510000840600208806002010B508B9B3
:101F90000F4B186800230F490C681CB903200E4929
:101FA000FFF784F88442E26A0ED15BB90A602046EA
:101FB000FFF7B6FDFFF7C6FF054B1B68A34206D12E
:101FC000FFF72EFCDA62F2E723461446E5E710BD80
:101FD000580600205406002074510000072898BFBE
:101FE000022038B5214B88BF03301C68204988BFC8
:101FF00080084CB91F4A5378FF2B01D0013353702E
:1020000000221D4B1A602FE062688A4203D006202E
:102010001A49FFF74BF854E90152854202D2234690
:102020001446E6E71A6054F8043C1B1A082B09D939
:1020300044F8040C013004EB8000013B40F8043C00
:10204000FFF78CFD00220B4B0D495A7054F8042CFD
:102050000B689B1A0B60084942F00042086844F87C
:10206000042C834238BF0B60204638BD9006002008
:10207000AFDEAFDE880600208C060020785100001D
:102080008406002038B5054630200C46FFF7A6FF31
:10209000002338B1074A0380C3621368C0E90154C2
:1020A0000BB9106038BD1A46DB6A002BFBD1D06239
:1020B000F8E700BF54060020044A0146137803489D
:1020C000FF2B1CBF01331370FFF724BE88060020CE
:1020D0000FB42DE9F7430AAB53F8045B15200193C5
:1020E0004FF08053D3F8B0310A275B699847DFF887
:1020F00018812878A8B90D20FFF770FD0A20FFF796
:102100006DFD424A93691B07FCD44FF08053D3F80E
:10211000B03115201B69984703B0BDE8F04304B007
:102120007047252805F101066BD16B786C2B019B5C
:1021300008BFAE1C53F8041B08BF20250193337859
:1021400018BF1025752B0C464ED00AD8642B1CD016
:10215000732B52D02520FFF741FD3078FFF73EFD6D
:1021600010E0782BF6D10024DFF8A49004342B1B68
:1021700021FA03F303F00F0319F80300FFF72EFD14
:10218000A542F3DC01363546B3E76B1E21FA03F3B3
:10219000DA0709D52D20FFF721FD102D04BF6FEAC6
:1021A00001446FEA1444644242F21071102D18BFCA
:1021B0004146B4FBF1F5ADB235B9012904D0B1FB0C
:1021C000F7F1F6E71049F4E705F1300080B2FFF7C8
:1021D00005FD0929B1FBF7F301FB1544D2D9B4FB86
:1021E000F3F51946ADB2EFE7102DEBD18CB242F208
:1021F0001071DEE7FFF7F2FC013108780028F9D111
:10220000C0E7FFF7EBFCBEE700CA9A3B00100040B6
:102210007D51000043F23903044A0549106801FB6F
:1022200000331360034A10685840704704000020D0
:102230006D4EC6417C06002038B58B7A0546DA071C
:102240000C4603D50A200E49FEF730FF036883428F
:1022500001D1FFF779FDA37A5B070AD52B68C4E9A2
:1022600000352B685C602C60A37A43F00103A372F5
:1022700038BD25606B6863601C606C60F4E700BF6C
:102280008D51000010B504460C3080B2FFF7A6FE59
:1022900010B100230481438110BD837ADB0708D588
:1022A000D0E90023536002681A60837A6FF3000359
:1022B0008372704708B5FFF7F0FFBDE80840FFF7ED
:1022C00041BE000010B501390446FFF7E6FF0429BE
:1022D00032D8DFE801F02D07031D1900837A43F09F
:1022E000040383726389C3F3C603072B03D8134A1D
:1022F00052F8230018B912490A20FEF7D7FE2146EA
:10230000BDE81040FFF798BF837A43F0040383725F
:10231000E27A5F2A4FEA521303D80A4A52F823207E
:102320000AB90949E8E7094A214652F82300E7E7D4
:10233000BDE81040FFF7BEBF10BD00BF94060020EF
:1023400093510000C00600209F510000B4060020F9
:1023500010B510F8022CA0F10C04920722D530F829
:10236000022CC2F3C602072A03D8114951F82220D1
:102370001AB910490A20FEF799FE10F8013CC3F380
:102380008203022B05D80C4A52F823300BB11B698B
:102390000BB90A49EEE7984701462046BDE81040D0
:1023A000FFF790BF2046BDE81040FFF783BF00BF96
:1023B00094060020AB510000D8060020B151000067
:1023C0000CB42DE9F3470AAB53F8048B02290F46EE
:1023D00001930BD8244B53F821303BB1B8F1020FD5
:1023E00004D8DFF8889059F828301BB9012020491B
:1023F000FEF75CFE08F007039B0243F0020343EA8A
:1024000041351C4B00269A4653F8042B12B3013673
:10241000082EF9D14FF0FF36304602B0BDE8F04744
:1024200002B070472B4666F3C9034AF82640238161
:10243000C4E9004459F828301B6813B90A200E4932
:10244000D6E731463846019A98470028E2D14AF843
:102450002640E1E70C20FFF7C1FD04460028E1D14A
:1024600006200649C4E700BFB4060020D8060020B5
:10247000B751000094060020C3510000BD51000078
:10248000022809D8064B53F820200AB18A4203D10A
:1024900043F82010002070474FF0FF30704700BF16
:1024A000D8060020082938B5034603D8194A52F83F
:1024B000210018B918490A20FEF7F8FD0468A04267
:1024C00008D14FF6FF72934221D01946FFF722FC44
:1024D000FFF7A6F92046FFF7E0FEE37A04F10C05CA
:1024E000C3F38203022B05D80C4A52F823300BB1F8
:1024F000DB680BB90A49DEE721462846984723885E
:1025000062881A4423899B1A6380284638BD0025B7
:10251000FBE700BF94060020C9510000D806002048
:10252000CF5100000829F7B5054614461E4603D8CA
:10253000264B53F821701FB925490A20FEF7B6FD36
:102540007B7AC3F38203022B05D8224A52F8233048
:102550000BB1DB680BB92049EFE7ADF804100020A0
:10256000ADF8066001A9984758B14FF6FF739D4238
:1025700002D1002003B0F0BD2946FFF7CBFBFFF7E7
:102580004FF93B7ADB0701D51449D6E7BDF80400C3
:10259000BDF80630A4B21844204480B2FFF772FEA2
:1025A00038B94FF6FF739D42E3D02846FFF784FD0C
:1025B000E5E73B8943811EB1837A43F004038372CC
:1025C000BDF80430448003800C30D3E7940600202B
:1025D000D5510000D8060020DB510000E151000079
:1025E0000346032B084610B5114603D8054A52F896
:1025F00023301BB90A200449FEF758FDBDE81040FE
:10260000184700BFC0060020E751000008B50B1EA8
:1026100011DA00281FDB013307D102281BDC0F4B26
:1026200053F8200000B1C06908BD022813DC0C4B30
:1026300053F82000F8E7082803D80A4B53F8203055
:102640001BB90A200849FEF731FD587ABDE8084059
:102650004009FFF7C5BF0020E6E700BFD80600200D
:10266000CC06002094060020ED510000F8B580B2A1
:1026700015460E4609B3531C03D103201249FEF739
:1026800015FD082A03D8114F57F8223013B90A2034
:102690000F49F4E7FFF7F6FD044608B90020F8BD3E
:1026A00057F8253031461B8943816FF3410383720C
:1026B000FFF708FE04F10C00F1E7FFF7E3FD002847
:1026C000ECD00C30EBE700BFF35100009406002083
:1026D000F9510000022810B5044603D80C4B53F8FA
:1026E000200018B103200B49FEF7E0FC43F824104A
:1026F000094B082043F82420FFF770FC074A42F8F2
:10270000240010B906200649EEE7C0E9000010BD1C
:10271000C0060020FF510000CC060020B4060020B7
:10272000055200002DE9F04F032805460E461446D9
:1027300085B003D81F4B53F820301BB91E490A201F
:10274000FEF7B4FCDFF874800DF10C0908F10807FE
:102750003B68BA46043F2BB9D045F9D1002005B0FB
:10276000BDE8F08FD3F808B0BBF1000F01D11449D8
:10277000E5E7314622462846CDF8009002ABD8471F
:1027800001460028E8D00128E8D0BDF80C20BDF8AB
:102790000E301A44A41A2046029AFFF767FF002859
:1027A000DCD0BDF80C1022463144FFF736FB012087
:1027B000D5E700BFC00600200B520000D80600205D
:1027C00011520000032808B503D80B4B53F82030F2
:1027D0001BB90A200949FEF769FC094B53F8203060
:1027E0001868834205D003890B60FFF756FD0C3053
:1027F00008BD0020FCE700BFC00600201752000003
:10280000B4060020032808B503D8084B53F820303D
:102810001BB90A200649FEF749FC064B53F8203045
:10282000186883420CBF00200C3008BDC006002091
:102830001D520000B406002010B510F8013CA0F1B4
:102840000C04C3F38203022B05D8084A52F8233044
:102850000BB15B691BB90A200549FEF727FC9847B5
:1028600001462046BDE81040FFF72CBDD8060020E9
:10287000235200007047FEE7FEE7FEE708B501F0CF
:10288000E3FC0D4B0D48DA1C121AC11E22F00302A4
:10289000994288BF00220A4902F0E0F909480A4932
:1028A0004FF000028842B8BF40F8042BFADBFFF774
:1028B00005F9FFF7E1FF08BD0C0100200000002032
:1028C0002C5C00000C010020580700200823002089
:1028D0004FF4806110B5084AD2F8C0404000E405CA
:1028E000C0B248BF40F00100013BC2F89010C2F8EE
:1028F000A010F1D110BD00BF0020024010B5082289
:102900004FF400744FF48061084B10F0800F14BF37
:10291000C3F89040C3F8A0404000013AC3F89010BB
:10292000C0B2C3F8A010F0D110BD00BF002002401B
:10293000012310B5044CC4F8503AFFF7DFFF002321
:10294000C4F8503A10BD00BF001044422DE9F041D8
:1029500004460D460127DFF84480114E98F80030F8
:102960005BB10520C6F8507AFFF7C8FFFFF7AEFF4E
:102970000023C6F8503AC30701D4BDE8F0814FF6F2
:10298000FF739C4203D10120FEF738FBE6E72146A6
:102990002846FFF705FAFEF743FF00BFE4060020D4
:1029A00000104442F8B50D4D2F7847B101214FF684
:1029B000FF70FFF7CBFF0022094B1A70F8BD01240E
:1029C000084E2046C6F8504AFEF702FB2046C6F8DD
:1029D000507AFEF7FDFA02232B70ECE7E4060020A4
:1029E000E50600200010444210B5074C2378022B66
:1029F00009D101214FF6FF70FFF7A8FFB920FFF7BB
:102A000097FF0023237010BDE406002008B5FFF7F0
:102A1000C9FF0122014B00201A7008BDE406002006
:102A2000034B1A781AB102221A70FFF7DDBF704704
:102A3000E4060020F8B5064618480C46FFF7CCF926
:102A400020B13146FFF79AF9FEF7EAFE237863B129
:102A50002046FFF7D3F9451CA8B2FFF7BFFA074697
:102A600030B93046FFF728FBEEE765780335F3E72A
:102A700023785BB12146FFF7C8F939460748FFF7CD
:102A800001FB40B93846FFF75DFAEAE72A462146DE
:102A9000FFF7C3F9F1E70020F8BD00BFD53400000F
:102AA0000EB477B504461248FFF796F9064620B1F2
:102AB0002146FFF763F9FEF7B3FE08AA07990192D2
:102AC00000F0F0FE054618B92046FFF7F5FAF2E7E8
:102AD00001460748FFF7D6FA18B92846FFF732FA39
:102AE000F2E7304603B0BDE8704003B0704700BF66
:102AF000D53400000EB433B50599044621B3134D07
:102B0000286888B91248FFF767F948B901461048A4
:102B1000FFF7B8FA20B92046FFF7CEFAFEF780FE9D
:102B20002146FFF72BF9F9E706AA019200F0E2FE31
:102B300004462868FFF706FA00232B60204602B0FF
:102B4000BDE8304003B070470C46F7E7300700207F
:102B500045350000044B054A1B7803F5597313846F
:102B6000034AD381704700BFE806002054000020CC
:102B70003C00002070B50C461A2800F2A480DFE863
:102B800000F00E39393914304F675B44353BA2A24F
:102B9000A2A2A2A27A77A2A28B8941A29A004C4B50
:102BA000187800F00100023028E0494A137843F019
:102BB000010313700020474B1968474B0C461D68F2
:102BC000002334F8102B02F007029A4208DD54F873
:102BD00033600133AE42F8D101EBC3039B880B8015
:102BE00070BD3B4A137823F00103E2E701B10C8882
:102BF0003A4B1C800020F3E7384B1888002CEFD0AC
:102C00002080EDE7364B1878CDE70C2221B1204625
:102C10003449FFF702F9EDE73248FFF708F9E9E731
:102C200041B9FFF7F7FAC0F3054102312E48FEF72C
:102C3000FDFFBFE70988F9E700202C4B5A8B2C4B8E
:102C400033F8021B8A42D9D001300828F8D1D5E7E1
:102C500019B10888072828BF0720254B33F8102012
:102C6000224B5A831A4A137863F07F031370A2E74A
:102C7000204B1878C2E721B10C88072C28BF072405
:102C8000E4B21C4B1C70FFF765FF114A137863F028
:102C90007F038EE7184BECE739B10B88032B06D87E
:102CA0003BB1DBB2144A1370EDE70223FAE70323CA
:102CB000F8E70123F6E719B10B88104A138099E76A
:102CC0004FF48073F9E703200D49FEF7EFF900BFD9
:102CD000F0060020EC060020FC0600202007002063
:102CE0000007002014070020E60600205400002002
:102CF00096520000E80600203A000020380000202C
:102D00003252000038B504460C4D204601F0A6F8BA
:102D1000C2B2012A11D0862A03D009490820FEF741
:102D2000C5F9013D05D121460648FFF7D1F906490D
:102D3000F4E70120FEF74CF9E7E738BD915F0100A9
:102D40003A5200003E5200004A52000010B5064CB4
:102D500023789B0706D50548FFF7D4FF237823F097
:102D60000203237010BD00BFF00600200100010423
:102D700038B5134C2378DB0621D54FF0805300255E
:102D8000D3F8B03119205B699847002001F0E4F9CD
:102D900001F078F80B4B01201D60FEF765F90A4B36
:102DA0005D6001F041F84FF08042084BC3F8A0206D
:102DB0000222C3F8A020237823F01003237038BD2B
:102DC000F0060020000004600000244300200240C0
:102DD00070B504460D4642F211766288AA420ED0C2
:102DE000013E08D1218806482B46FFF771F90820DB
:102DF0000449FEF75BF90120FEF7EAF8EDE770BD44
:102E000053520000635200002DE9F047514C2378E3
:102E1000DB0600F19C804FF080424F4BC3F89020BE
:102E20000222C3F8902000F0C3FF0A20FEF7D0F87A
:102E300000F0CAFF0028F8D00125484B28465D6005
:102E4000FEF7F2F840F2FF72454B46481A60FFF772
:102E500059FF4FF423724449444801F0FFFE002219
:102E6000434B444883F89020022283F875200322C4
:102E700083F87720042283F8AE20052283F8AB2064
:102E8000062283F8795083F881204FF004533A4AA0
:102E9000C3F8C023394A03F540439169D2E9009849
:102EA000D2E902ECD2E90476D569C3F80090C3F800
:102EB0000480C3F808E0C3F80CC01F615E6199612B
:102EC0001946814202F1200203F12003CD61E4D1D1
:102ED0002B4B2C4A2C48C3F8A0262C4AC3F8A42616
:102EE0002B4AC3F8A8262B4AC3F8AC262A4AC3F8B3
:102EF000B026FFF707FF012001F02EF9274801F067
:102F00001BF92748FFF7FEFE4FF450512448FFF706
:102F10005FFF2448FFF7F6FE2348FFF7F3FE224841
:102F20004FF48061FFF754FF00222378192003F04B
:102F30007F0343F0100323701C4B5A611A614FF05A
:102F40008053BDE8F047D3F8B0311B691847BDE89E
:102F5000F08700BFF006002000200240000024435C
:102F600000000460510007065C5900001C040021A9
:102F70000003002180C60021BD050021A8520000E9
:102F800000C0002160395363010007062010101AA9
:102F9000136F236E11161216546B00700407002075
:102FA00054000020240000203C00002000100440B9
:102FB0002DE9F843294B9A6922F0004222F480322D
:102FC0009A6100221A611D69002DFBD102265A69FF
:102FD000234F42F0004242F480325A61214BDFF825
:102FE0008880DB69DFF884901C682379032B1ED16D
:102FF000637A217ADA1C914205F101051CD198F817
:1030000000209A4218D313F0010C15D104F10801E5
:103010009A1C885C0B448038D87001F802C0B9F85B
:10302000000004F10A01FFF77DFB00232371012E4C
:1030300006D001262468D8E73846FFF749F8F4E7B8
:103040004DB1FFF7E7F8BDE8F843C0F302410231A4
:103050000748FEF7EBBDBDE8F88300BF0010044051
:10306000675200007C00002000070020F8060020C6
:10307000E60600200128F8B500F08380022800F061
:10308000B580002840F0C680644C94F90030002BD5
:1030900005DAFFF76DFE237803F0690323702278C9
:1030A00002F0010392071DD50BB9FFF74FFE5C4DEF
:1030B0005C4E2B68002B48D15B4B29461888FFF7E4
:1030C00081FB706160B3594A2B681278023B9342CE
:1030D0002B6003DC002B01DDDF0718D50A205449E3
:1030E000FDF7E4FF002BE2D0FFF78EFE237813F00C
:1030F0000203DCD14F48C269126813711268137160
:10310000FFF700FE237843F002032370CFE74FF66A
:10311000FF72494B1B88934218BF03802B68F373DF
:10312000296891B9454B1868FEF7F4FD23789C0790
:1031300003D5FFF73DFFFEF773FBD806FBD5022151
:103140003F4B1888FEF72CFEF5E73E4F3D8865B1F2
:103150003A4B00211868FEF7DDFD00213888FEF7A4
:103160001FFE23789907E6D5E3E7FFF74DFEFFF74B
:10317000EDFD6FF00202344B758034481A61FFF7A1
:10318000C1FD264B93F90030002BFFF67DAF2E4B8F
:103190001A69920702D401210846D3E721482C4C32
:1031A0004288B2F5505F18D022780F2A09D9002240
:1031B00042806FF002021A61FFF7A4FD0120FEF7C2
:1031C0009FFD237801332370FFF724F8C0F30541F6
:1031D00002311C48FEF72AFD56E74069FFF72CFB39
:1031E00000230F4A022113602370F2E70B4B1A7879
:1031F00093F90030002BFFF647AFD3073FF544AFFC
:10320000094B1888FFF7FEFA00287FF43DAFFFF75F
:10321000AFFD39E7BDE8F840FEF7EABCF006002054
:10322000F4060020A0000020F8060020000700207F
:103230006E5200007C00002020070020FC060020C9
:1032400038000020E606002000100440080000209E
:103250002207002030B5154A1369002BBFBF14495F
:103260000B7863F07F030B70002111611369002B51
:10327000FBD1516953610F4A0F4C1168246808460D
:1032800030F8102B02F007029A4208DD50F8335054
:103290000133A542F8D101EBC3039B880B80074A99
:1032A000137843F00203137030BD00BF00100440D8
:1032B000F0060020EC060020FC060020640600203A
:1032C0002DE9F84F494C064622781AB109204849A1
:1032D000FDF7ECFE29B18A1FF42A03D903204549E2
:1032E000F6E7FA2100274FF00208BA464FF004092A
:1032F000217020789B460D30FEF770FE034620B902
:1033000006203B49E4E7B846F3E780F804A0002F25
:103310003ED0CBF8000001272278B84502F1020226
:1033200083F80590DA80EED11D600820FEF756FE86
:10333000314BD8610028E3D005600025DA692F49B8
:1033400055602F4A30461A62DA8942F40C5242F034
:103350000602DA8123784FF41062023B2370294B76
:103360001E80FFF7B7F9284B0722022118602B4671
:103370002648FEF7ADFE2648FEF742FC29462548C2
:10338000FEF780FE244B186020B9042018499FE7FF
:103390000546C0E74BF62B43204C21496383214B64
:1033A0001A78013A01EB8203588831F822302269F9
:1033B00003F00F0322F0FF5222F4FF1222F4F8521E
:1033C00022F00F0243EA002313432361FFF7C2FBFD
:1033D000154B2046C3F8D05100F022FE2046134979
:1033E00000F076FD124B9D61BDE8F88F00070020CC
:1033F000765200007B5200007C000020752B0000FC
:1034000014070020F8060020FC060020835200006C
:10341000E606002075300000EC0600205400002075
:10342000E85B00003A00002000200840040700206C
:103430000010044010B5074A034612684FF0FF30F1
:1034400032B152F823408C4204BF42F823000020DE
:1034500010BD00BF240700200749009A096809B978
:103460000020704751F8201019600131F8D0002376
:1034700002205380138070472407002000204880DA
:1034800008807047042070470120704770B50F4EC8
:10349000044633680D464BB90C20FEF79FFD3060A3
:1034A00078B14FF0FF33C0E900338360336853F8DD
:1034B0002420013206BF43F8245000204FF0FF3093
:1034C00070BD06200249FDF7F1FD00BF2407002072
:1034D000F45B0000F7B5184B1B689D6830B10A28F3
:1034E0000DD003B0BDE8F040FEF782BB134B144C87
:1034F0001D602B78E3B12846FEF780FC20600F4E5C
:103500000F4F3B8801220093002133680A20FEF709
:10351000A3FC33683C680344241A33603C60002CED
:10352000EFD12846FEF70EFD2046FEF72FFDE8E717
:103530006B7803332360E2E7580600202C07002055
:1035400028070020F7B5424D2B689C6803287AD8DD
:10355000DFE800F00218485D3E4B1B6813B1002005
:10356000FEF714FD4020FEF739FD3B4B0446186082
:1035700018B9FEF7A1FDFEF753F93F222B689860BA
:10358000364B1A6001200022334D00902B68114603
:10359000FEF762FC2B68A3420DD1237823B9631C8C
:1035A00002202B60FEF7ACFB2B681B781F2B02D888
:1035B0000120FEF7A5FB2B681A780A2A01D00D2AF4
:1035C00005D100201870234B1C60FEF7DFFC234957
:1035D0000B6823B12A68013B01322A600B6001208D
:1035E000FEF78EFB012300221B4D009311462B6832
:1035F0000220FEF731FC194803689A1E2B6813F865
:10360000011B01319142D4BF016002602B60002296
:10361000124F114E3B881146009303203368FEF78A
:103620001BFC3B680546181A386018B9094B1C602A
:10363000FEF7ACFC306828443060032003B0BDE8DE
:10364000F040FEF75DBB03B0BDE8F040FEF7D0BA36
:1036500058060020300700203807002034070020DB
:10366000DCF8002032B1BCF80630BCF804109942F6
:1036700088BFD054BCF806300133ACF80630704730
:103680002DE9FF471C460CAB039300230A26834F0A
:103690000190ADF80810ADF80A3092F80090B9F139
:1036A0005C0F13D192F80190951C0DF1040CB9F147
:1036B000000F06D15C20FFF7D3FF48460DF1040C44
:1036C00022E04846FFF7CCFF2A46E6E7B9F1250F8E
:1036D00040F0E18092F80180951CB8F1730F00F082
:1036E000CC801AD8B8F1640F32D0B8F16C0F66D024
:1036F000B8F1630F00F0BB8025200DF1040CFFF73B
:10370000AFFF40460DF1040CFFF7AAFF0028DBD104
:10371000BDF80A0004B0BDE8F087B8F1750F17D006
:10372000B8F1780FE8D14FF00C0854F8043B1FFAB9
:1037300083F949FA08F303F00F03F85C0DF1040C68
:10374000FFF78EFFB8F1000FBED0A8F10408F0E734
:1037500054F8043BB8F1640F1FFA83F90AD11B0433
:1037600008D52D200DF1040CFFF77AFFC9F10009EF
:103770001FFA89F9052342F21078B9FBF8F010F02E
:10378000FF0003D1013B17D14FF001081FFA80FA67
:103790000DF1040C3030FFF763FFB8FBF6F308FBC4
:1037A0001A99B8F1090F1FFA89F99BB28CD9B9FBA4
:1037B000F3F09846C0B2E9E7B8FBF6F8DDE7937896
:1037C000642B01D0752B32D1642B54F804AB02F179
:1037D000030509D1BAF1000F06DA2D200DF1040C12
:1037E000FFF73EFFCAF1000A0A23DFF8B480BAFBF4
:1037F000F8F919F0FF0903D1013B15D14FF0010889
:103800000DF1040C09F13000FFF72AFFB8F1090FA0
:10381000B8FBF6F308FB19AA7FF656AFBAFBF3F92B
:1038200098465FFA89F9EBE7B8FBF6F8DFE7782B03
:1038300014D14FF01C0854F8049BD51C29FA08F346
:1038400003F00F03F85C0DF1040CFFF709FFB8F16A
:10385000000F3FF439AFA8F10408EFE748460DF137
:10386000040CFFF7FDFE40460DF1040C2AE754F866
:10387000040B0DF1040C80B224E754F8043B03F16F
:10388000FF3818F8010F00283FF41EAF0DF1040CAB
:10389000FFF7E6FEF5E7551C0FE700BF7D5100007E
:1038A00000CA9A3B2DE9F0410E461746044640B146
:1038B00013460A464FF6FF71FFF7E2FE2046BDE8C9
:1038C000F0810846FEF79AFA00F11105ADB22846DC
:1038D000FEF784FB04460028F0D03B4632462946DA
:1038E000FFF7CEFE85428046E8D22046FEF72AFB4F
:1038F0004546ECE703462DE9F043002800F0B88187
:10390000002900F0B78100240A272546DFF8D8C235
:103910000E4611F8010B70B12528F9D17078B11C51
:103920006C2800F0E18009D8632800F087816428C2
:1039300043D00028ECD12046BDE8F083752874D030
:10394000782800F098807328E2D118781E46A0F1FC
:10395000090E5FFA8EFEBEF1170F984603F10103C0
:1039600040F276810028E6D02C2852F804EB04F1CE
:1039700001040ED0464618F8013BA3F109000128C6
:1039800007D90D2B05D02C2B03D013F0DF0F40F0FF
:10399000668196F800803346A8F10900C0B2172866
:1039A00006F1010640F25E81B8F12C0F08BF3346E4
:1039B0008EF80050ACE7002EBDD09E4613F8016B88
:1039C000A6F13000092823D92D2E01D02B2EF2D1BB
:1039D00018789E4630380928EFD8A6F12D09D9F17C
:1039E000000848EB090852F8046B013435809EF852
:1039F00000007346A0F13009B9F1090F0EF1010E74
:103A000009D9B8F1000F83D13088404230807FE778
:103A10004FF00008E7E7338803EB8303C0EB430074
:103A200030303080E3E7002885D018781E46A0F1BA
:103A3000300EBEF1090F03F10103F4D852F804EB84
:103A40000134AEF8005030783346A0F13008B8F1B8
:103A5000090F06F101063FF65BAFBEF8003003EB3D
:103A6000830300EB43003038AEF80000EBE7BEF113
:103A7000000F3FF460AF93F800E01E46AEF1300057
:103A8000092803F1010304D92EF02000413805284C
:103A9000EDD852F804EB0134AEF8005006F10508F9
:103AA00096F800903346A9F13000C0B2092806F11B
:103AB000010640F2E18029F02000413805283FF658
:103AC00027AF46453FF424AFA9F16103052B94BF0E
:103AD000A9F15700A9F13700C0B2BEF8003040EAA2
:103AE0000310AEF80000DBE7B078F11C752800F099
:103AF000808031D800283FF41EAF64287FF408AFDF
:103B0000984613F8016BA6F13000092862D92D2ED2
:103B100001D02B2E5BD11878984630380928EFD881
:103B20002D3E7042704152F804EB0134CEF8005043
:103B300098F800604346303E5FFA86F9B9F1090F04
:103B400008F1010848D900287FF4E2AEDEF8000051
:103B50004042CEF80000DBE678287FF4D9AE93F837
:103B600000E01E46AEF13000092803F1010304D93C
:103B70002EF02000413805285CD852F804EB0134BF
:103B8000CEF8005006F1090896F800903346A9F1E6
:103B90003000C0B2092806F1010671D929F02000D1
:103BA000413805283FF6B4AE46453FF4B1AEA9F121
:103BB0006103052B94BFA9F15700A9F13700C0B2EA
:103BC000DEF8003040EA0310CEF80000DCE7002EFB
:103BD00096D1B0E60020A6E7DEF80030B6B27B430F
:103BE0009E1BCEF80060A3E71300800000283FF47E
:103BF000A2AE18781E46A0F1300EBEF1090F03F1F7
:103C00000103F3D852F804EB0134CEF800503078B9
:103C1000334630385FFA80F8B8F1090F06F1010633
:103C20003FF676AEDEF8003080B207FB0300CEF838
:103C30000000ECE7BEF1000F91D17CE613F8010B18
:103C400000283FF478AE52F8046B013430705FE620
:103C50002CFA0EFE1EF0010F7FF477AE84E60EF80C
:103C6000013B87E62CFA00F0C0073FF592AE9FE6D5
:103C7000044660E60C465EE646457FF42EAF47E616
:103C800046459DD144E600BF70B5064600F044F8B5
:103C90000546064C2368002BFBD0B0470123236068
:103CA0001DB9BDE8704000F03BB870BD00800C400D
:103CB000084B1868084B1978084B1A6840F3100332
:103CC000A2F5407248B25043A3EB2010803000129E
:103CD000704700BF305009400C1300502850094075
:103CE000054A06491368086812689342F8D11B0414
:103CF00043EA1040704700BF082009400C200940EB
:103D0000034B04491A68086819689142F8D1704752
:103D1000082009400C200940EFF3108072B670476C
:103D2000EFF3108062B6704773B50C46C1070546C5
:103D300009D5124BA2B21B68002100925E681048A0
:103D400001220B46B047AA0709D50C4BA2B21B684B
:103D500000925E680A48002102220123B0476B07E7
:103D600009D5064BA4B21B6800945C680448002186
:103D70000C220223A04702B070BD00BFA4010010B6
:103D800000A00C4010B5084B04281B684FF034010C
:103D9000DC6807BF4FF0C0421D234FF080521C2348
:103DA0000248A04710BD00BFA401001000A00C40B5
:103DB00008B503200121FFF7B7FFFFF791FF014B83
:103DC000986008BD3C07002010B50120FFF7DAFF1E
:103DD00001281CD00F4B10481B683421DC680122DD
:103DE0000023A047A0B10D4B986BFFF74DFFFFF7E5
:103DF00077FF0B4A9368D060C01A0A4B5843136888
:103E0000000CA3EB9303834294BF10601360012066
:103E100010BD00BFA401001000A00C40480000101D
:103E20003C07002040420F0010B503200021FFF79F
:103E30007BFF0120FFF7A6FF18B1064B986BFFF739
:103E400023FFFFF74DFF044C6060FFF731FF206157
:103E500010BD00BF480000103C070020074A116851
:103E60000029FBD1064B196010601A68002AFCD0AB
:103E7000034B00221A6053F8180C704700100440DE
:103E80001C1004400E4A0F491368502023F400739D
:103E900023F0020343F4007313600B4B03221A60F8
:103EA00041F23003094A0B600123136008604FF4AC
:103EB000CA6013600860136042F80C3C704700BF92
:103EC0000000046014410440084104400C410440D7
:103ED00040F602020388934206D043F6070293425B
:103EE00004D190F8243002E0C37B00E00023364A7E
:103EF0000A2B12680A6031D010DC052B21D0062B6A
:103F000053D1324B1B684B60314B1B688B60314B7C
:103F10001B6823F0784343F0405352E00F2B2AD024
:103F20001E2B35D00C2B40D12B4B1B684B602B4BE1
:103F30001B688B602A4B1B6823F0784343F0C04317
:103F40003FE0284B1B684B60274B1B688B60274B5F
:103F50001B6823F0784343F0205332E0244B1B6866
:103F60004B60244B1B688B60234B1B6823F078430A
:103F700043F0A04325E0214B1B684B60204B1B689E
:103F80008B60204B1B6823F0784343F0F04318E02C
:103F90001D4B1B684B601D4B1B688B601C4B1B68CB
:103FA00023F0784343F070430BE01A4B1B684B60DF
:103FB000194B1B688B60194B1B6823F0784343F047
:103FC0008053CB60704700BF4C130050C8100050A6
:103FD000E0100050F8100050D0100050E8100050D1
:103FE00000110050C4100050DC100050F4100050BC
:103FF000CC100050E4100050FC100050D4100050C1
:10400000EC10005004110050D8100050F010005077
:1040100008110050541300505813005080130050E2
:1040200043F6060270B5038893420AD043F60702AE
:10403000934209D040F6020293426BD1C17B43699F
:1040400005E0C369022102E090F82410C369002B47
:1040500060D003F1140444F238051A68184696B289
:10406000AE4203F1040303D1C2F303441CB970BD93
:10407000A342F0D170BD0A291DD006DC052913D05A
:10408000062916D002291FD107E00F2915D01E29B5
:1040900015D00C2918D1204B12E0204B1B68C3F31C
:1040A00083430F2B2AD123E01D4B1B68C3F303234B
:1040B0002CE01C4B04E01C4B02E01C4B00E01C4BB2
:1040C0001B68C3F3834321E0144B1B68C3F3834392
:1040D0000F2B13D1053919290AD8012303FA01F14D
:1040E000144B0B4023B122F4702242F4E02203E08F
:1040F00022F4702242F48022026070BD9C4209D2F8
:1041000022F4702242EA0343036070BD0F2BF5D105
:104110000539E2E770BD00BF001100508013005068
:1041200020130050F8100050FC10005004110050F3
:104130000811005021040002034630B5054C00F17F
:104140001005224618685968083303C2AB4214466A
:10415000F7D130BD18000021044B28B1044A0021DA
:10416000117020221A707047187070470262084060
:104170000062084038B50546264B01221A60264BDE
:104180001B68002BFBD0254BC0221A60244B1B68F8
:104190009B075FBF234B244A1B68C3F303435CBFE9
:1041A00043F0F0031370214B00221A60204B1C686F
:1041B000204600F0D9F82846214600F00DFA40F2DA
:1041C0001D221C4B1B689BB2934214D81A4A1368D9
:1041D0001268C3F30363C2F3034203B1013B911FAF
:1041E000012986BF023202F00F02072243EA0213BE
:1041F000124ADBB21370204600F0BCFA104B0220CA
:104200001B68DB689847054B40221A600D4B012262
:104210001A6038BD101009409402224300600C401F
:10422000B03F0050AC3F005056620840401009407B
:10423000B43F005014130050BC12005002600840FC
:10424000A00100109404604210B51F4B1C68631C51
:1042500008BF002400F0DEFC1C4B00221A601C4A40
:10426000012313601B4A136000F03EFA1A4B1B68CF
:1042700023B11A4B20461B68FFF77CFF184B002226
:104280001A60184A136823F07F6323F4702343F005
:104290009C7343F48033136002F5BB2202F2BC72BC
:1042A0001368C3F30133012B01BF136823F040737C
:1042B00023F4403343F4003104BF116013600A4B10
:1042C0001B68002BFBD110BD1C13005084046042FE
:1042D0005C600C4008220443800128430001204315
:1042E0008C210840482003400C00684230B5194B2F
:1042F0001A68194BC2F304621B78152A03F01F03D6
:1043000088BF203A152B88BF203B934220D0134909
:10431000002008600846D11A022905DC6FF001046C
:10432000A142B8BF214600E002210B440C490D4DCB
:104330000C6803F01F0444F4F8542C8093424FF0AF
:1043400001040C60E7D10B680C600B6804600B681B
:1043500030BD00BF8813005006620840980020431B
:104360002C2009406C62084000F04073B3F1807F5C
:1043700010B504460FD14FF6D8011E4A80231370A2
:10438000A2F8411002F8103CFFF7B0FF1A4B1B686F
:10439000C3F3042303E0194B1B68C3F30463152B19
:1043A00088BF203B03EB24730133152B05DC6FF032
:1043B00009029342B8BF134600E01523104A03F0E8
:1043C0001F0343F4F85313800E4B1B6813F00203D2
:1043D0000ABF0D4A44F040641360C4F3C0630B4A43
:1043E00083F001031360C4F38064094B84F001047B
:1043F0001C6010BD2562084088130050B8120050A0
:104400006E6208400000094094042A4300002043E3
:1044100008002043154B81031B68C3F38362C3F379
:104420008F231FD440F30720002819DA5B0805D139
:10443000520806BF01231A464FF6FF730130F3E717
:104440005B0043F00103B3F5803F08D3520042F014
:1044500001020F2A86BF4FF6FF730F220123013896
:104460000028EDD143EA0240704700BF50130050CE
:10447000044A13681068C3F3870300F0030043EA9B
:104480000020704750130050024B186800F0FC30B9
:10449000704700BF74130050034B186820F07F4032
:1044A00020F44030704700BF7013005070B5154BBA
:1044B00015491C680968C4F3035211F00105C4F3DF
:1044C000034313D11149096841F30326B21803D4F9
:1044D0000F2AA8BF0F2200E02A4641F30331CB1870
:1044E00003D40F2BA8BF0F2300E00023A1B2212883
:1044F00041EA025242EA034384BF04F0804423436A
:10450000184670BD78130050B03F0050AC3F0050CB
:104510001F2883BF024B1868C0F30150002070476A
:1045200098130050212883BF024B1868C0F3007015
:10453000012070478C130050212883BF024B18685C
:10454000C0F34070012070478C1300501F2881BFBA
:10455000074B1B68C3F30260800081BFC3F3C162D5
:1045600040EA0220C3F38153184398BF00207047EC
:1045700098130050024B1868C0F3C140704700BF49
:104580008C1300501F2881BF074B1B68C3F3051015
:10459000C3F3892281BF00041B0340EA82509BB20F
:1045A0008CBF1843014870479813005000803F406B
:1045B000212883BF024B1868C0F3C06000207047F9
:1045C0008C130050212883BF024B1868C0F345505C
:1045D000002070478C13005073B505460846FFF75E
:1045E00019FF394C02461821204600F033FBFFF733
:1045F0003FFF364B80B21B6800905E6820462C213E
:1046000040F2FF320023B047314B20461A681C218C
:10461000C2F30D0200F01EFBFFF736FF1421024625
:10462000204600F017FBFFF737FF10210246204617
:1046300000F010FB2846FFF739FF0C210246204608
:1046400000F008FB2846FFF76DFF4000214E40F0C8
:104650002000C0B230702846FFF76EFF40F0100017
:10466000C0B230702846FFF771FF2821024620466D
:1046700000F0F0FA2846FFF74BFF4000164B40F0E1
:104680006000C0B218702846FFF792FFC000134BBD
:1046900060F07F00C0B218702846FFF793FF6FEA02
:1046A00000606FEA90500E4B80B218802846FFF7EA
:1046B00069FF08210246204600F0CCFA094B4FF46E
:1046C00080021A6002B070BD00A00C40A40100106E
:1046D0007C13005049A10C404CA10C4041A10C405E
:1046E000DCA10C4040A00C4030B5144B1B68002BE3
:1046F000FBD1134A13491368096823F0005323F0D0
:10470000070311F0040F144643F0005303D043F0A5
:104710000503136030BD0C4943F004000D68AD077C
:1047200009D043F0070313600B6803F00303032B66
:10473000FAD1206030BD106030BD00BF0C0068426F
:1047400004400340B03F005000400340074B82B29A
:10475000C0F307401A605860012208331A60044A07
:104760001268002AFBD000221A6070473C600C409F
:1047700084088C43C0F38143012B10B5044602D05A
:10478000022B2FD02AE0424B1B689A0326D4414AC1
:104790004FF4804111604049C3F303300A6822F0AE
:1047A0008F020243C3F3004042EAC0120A6051F88C
:1047B000012CC3F3032022F00F02024351F8010C35
:1047C00041F8012C51F8022C03F0E70322F0E70234
:1047D000134351F8022C41F8023C03E02D4B4FF0FB
:1047E00000421A602D4B1B681B075EBF2C4B4022FA
:1047F0001A602C4B4FF400721A60FFF7BBFE2A4B75
:1048000040F03000C0B21870C4F3815001280BD0C2
:1048100002D3022826D028E004200121FFF784FAE1
:104820002248FFF793FF24E0FFF7ACFA0446042088
:104830002146FFF779FA0420FFF7A4FAA042FAD143
:104840001B4B1C6824F07F40FFF780FF194B4FF093
:1048500060221B68200E1B68072198470D4B4FF400
:1048600080621A600420032101E004200221FFF786
:104870005BFA114B114A1B6803F03F03137047F6B4
:1048800018020F4B1A80A3F56433443B1B6810BD1C
:104890008C13005040A00C400C600840B03F00500A
:1048A00068A00C4080A00C4008A10C40BD378600D9
:1048B000A83F0050B40100106C1300500BB00C4026
:1048C00070B00C402DE9F74F774B07461B68774EC9
:1048D00013F0020F04D00823B371754A754BDFE063
:1048E000FFF7E6F9744B1D682A17AC0202F10101CB
:1048F00008D4C0F13E03DB10082BA8BF082399425F
:10490000B8BF194605F04073B3F1807F0AD16B4BF5
:104910001A681B68C2F30422152A88BF203AC3F321
:1049200004630AE0664B1A68664BC2F304621B68B4
:10493000152A88BF203AC3F30443152B0A4488BFC5
:10494000203B152A05DC6FF009018A42B8BF0A46F0
:1049500000E015225C4C02F01F0141F4F851218067
:104960005A49096811F0030418BF0124490748BFD8
:1049700044F002040FB144F0040496F90710411A00
:10498000042903DC494989798C426FD0B0F10F01C9
:10499000019104F00101DFF844A104F0040904F0DE
:1049A00002080F462AD4019901EB01114FEA212E8A
:1049B000BEF1070F019101D804D101E04FF0070EBD
:1049C000062100E07146DFF818B101315AF821C024
:1049D0005BF82110C1EB0C0C5FFA8CF1B9F1000F00
:1049E00002D0CCF3072B5944B8F1000F02D0CCF31E
:1049F000074B59442FB101EB1C6102E04FF0000E50
:104A000071465AF82EA05FFA8AFCB9F1000F02D065
:104A1000CAF30729CC44B8F1000F02D0CAF3074803
:104A2000C4440FB10CEB1A6C9B1A012BB8BF0123C5
:104A3000019F34225343A7EB0E277943EDB26B431A
:104A400080310CEB1121B3FBF1F14FF6FF7C614596
:104A500028BF61467F28B18005DC6FF07F03984254
:104A6000B8BF184600E07F20F071B471184B0021E8
:104A70001B683360B3881E2B9EBF0C4A1F23938094
:104A8000B3F5007F02D35B080131F9E7114A0F3B10
:104A90000A431B0942EAC303064A13600E4B002275
:104AA0001A6003B0BDE8F08F0000094050070020F5
:104AB000FDFDA40030100940B43F005088130050A1
:104AC000B81200503C1100506E6208402422084089
:104AD0000820094000E7A480341009409C130050CE
:104AE0009813005010B5144B1C68A4B214B3FFF710
:104AF000DFF8124B93F90720904205DA6FF07F023E
:104B00009042B8BF1046D8719A880C49944210D38D
:104B10000B4B08681B68A41A02331B1A1F2B28BFF3
:104B20001F235B08DC4014444FF6FF72944228BFF9
:104B300014468C8010BD00BF34100940500700207F
:104B400008200940044B1A6812045ABF1868C0F3C1
:104B500042000820704700BF040009404BF69A123B
:104B6000104B1868C0F30F30904206D11B681B0F22
:104B70000B2B0CBF0420002011E04BF6BE13984213
:104B80000AD04BF64133984208D04BF62033984276
:104B900014BFFF20022002E0012000E0032040B209
:104BA000704700BF1813005038B5194B1D68A3F5A6
:104BB0001E7318682D0FC4B2802C28BF0024FFF785
:104BC000CDFF042821D8DFE800F003131B1B1C00D5
:104BD000013D072D19D8DFE805F011180418181841
:104BE0000608142012E0152010E004F116000AE077
:104BF00025B1022D09D104F1140004E00A2005E0DA
:104C00001DB904F10A00C0B200E0FF2040B238BD77
:104C10001813005008B5FFF7A1FF012803D1FFF7D3
:104C2000C3FF132800DCFEE708BD000038B50446CA
:104C30000D46FFF771F8064B1A68002AFBD00122D7
:104C400025601A6018B9BDE83840FFF769B838BD6B
:104C500000800C4008441146FFF7E8BFF0B5C64697
:104C600000B50F2A43D903270D003E0005430C0071
:104C700003002E402F423FD11500103D2D09A846BC
:104C80002D01AC46844427681F6067685F60A76891
:104C90009F60E7681D00DF60103410336545F2D176
:104CA00045460F230C2401352D01491913404519A0
:104CB000144224D08C59AC5104369C1B032CF9D8D7
:104CC000043B9B0801339B00ED18C91803231A40CD
:104CD000561E002A06D00023CC5C1A00EC54013387
:104CE0009642F9D180BCB846F0BC02BC084705002A
:104CF000561E002AEFD1F5E70500561EEBE71A0015
:104D0000F6E7C046F0B5050083074DD0541E002AD3
:104D100047D00A0603000326120E02E00135013CCB
:104D20003FD301332A703342F8D1032C30D9FF220C
:104D30000A40150215432A0415430F2C37D92700C2
:104D4000103F3F093E01B4461E001A00103666446B
:104D5000156055609560D5601032B242F8D10137C8
:104D60003F01DB190F270C22274022403C00002A7C
:104D70000ED03E1FB608B400A4461A001C1D6444A1
:104D800020C2A242FCD103240136B6009B193C404C
:104D9000002C06D00906090E1C19197001339C421B
:104DA000FBD1F0BC02BC084703001400BDE727009C
:104DB000DFE7C0460D0A44657374696E6174696FFC
:104DC0006E206E6F64652049443A20000D0A496EDA
:104DD00076616C69642064657374696E6174696F6F
:104DE0006E206E6F6465204944000D0A5265636F42
:104DF000726420737472696E673A20000D0A46610E
:104E0000696C656420746F207265616368207468E2
:104E1000652064657374696E6174696F6E000D0A54
:104E20002044617461205361766564000D0A20544A
:104E30006865207265636F72642063616E277420F9
:104E40006265207361766564206F6E206E6F6465A5
:104E5000202564000D0A456E746572207265636FCB
:104E6000726420696E6465783A20000D0A496E7696
:104E7000616C6964207265636F726420696E646539
:104E800078000D0A205265636F7264205265636575
:104E9000697665642066726F6D2025643A202573FB
:104EA000000D0A20546865207265636F7264206487
:104EB0006F6573206E6F74206578697374206F6EF0
:104EC000206E6F6465202564000D0A204E656967B9
:104ED00068626F72733A2000256420000D0A5265E3
:104EE000636F72642064656C65746564000D0A54B8
:104EF0006865207265636F726420646F6573206EED
:104F00006F742065786974206F6E206E6F64652001
:104F100025640043616E6E6F74206F70656E20743F
:104F2000637620696E74657266616365000D0A4779
:104F3000726F75702025642044657669636520234F
:104F40002564202825642F2564207265636F7264B0
:104F50007329000D0A284729726F75702049440D86
:104F60000A284E296577206465766963652049447F
:104F70000D0A284629696E64206E65696768626F4C
:104F800075720D0A28432972656174652072656324
:104F90006F7264206F6E206E65696768626F720D54
:104FA0000A284429656C657465207265636F7264B4
:104FB000206F6E206E65696768626F720D0A2852F5
:104FC0002965747269657665207265636F72642005
:104FD00066726F6D206E65696768626F75720D0A23
:104FE000285329686F77206C6F63616C207265634A
:104FF0006F7264730D0A52286529736574206C6F93
:1050000063616C2073746F726167650D0A0D0A53DA
:10501000656C656374696F6E3A20002563002563D3
:105020000D0A00456E7465722047726F75702049D5
:10503000443A200025640D0A0D0A00456E7465721D
:10504000204E6F64652049443A20000D0A496E6481
:1050500065780954696D65205374616D70094F77E7
:105060006E6572204944095265636F726420446121
:1050700074610D0A002564092564092564092573F6
:105080000D0A005359534552523A2025782C2025B9
:10509000730075617200756169005069634F532038
:1050A00076352E342F5047313830323232412D434D
:1050B00043313335305F4C41554E4348584C2C20DA
:1050C000284329204F6C736F6E657420436F6D6D9C
:1050D000756E69636174696F6E732C203230303283
:1050E0002D32303138004C6566746F76657220520F
:1050F000414D3A2025642062797465730073740011
:105100005069634F532068616C746564000000004F
:105110008060300080603800106018000F40102060
:1051200000406930004071300860B8000040C9603C
:105130000040D1600040D9600040E1608063090018
:10514000806BF100002040208060480080605000AB
:105150000060A00073746174650075742061007351
:1051600077006164647600696F006D616C31006D79
:10517000616C67006B7069006D616C630030313287
:1051800033343536373839414243444546746376C3
:10519000303100646973706F7365207365730064E8
:1051A0006973706F7365207068790074637630324C
:1051B0000074637630330074637630340074637641
:1051C00030350074637630360074637631300074A5
:1051D000637631310074637631360074637631372B
:1051E000007463763138007463763233007463760A
:1051F000323200746376323600746376323700746C
:1052000063763238007463763239007463763330F3
:1052100000746376333100746376333200746376DE
:10522000333300746376333400999A9B9C00000DED
:10523000000E63633133206F700072743100485583
:105240005020256C7820256C780068616E67206995
:1052500063300048555020256C7820256C78202537
:105260006C780072743200424144205258006363EB
:10527000313320707900636331330063633133204D
:105280006D62004343313335303A2025642C2025AC
:10529000642C20256400C004C312C5184418C92416
:1052A000CE32D8582BBC0000A36100007F14071336
:1052B0004D00F1242E1F133FB00A3F0007FF0000EE
:1052C000304000400140034007400F404F40CF4076
:1052D000CF41CF43CF47CF4FCF3FCF2FCF1FCF0FA0
:1052E000000000000F00080000003F000000400028
:1052F0003F000000040068000E00DC0006004300D0
:105300001A00050000000000020000003F0000003D
:1053100000000400C00000000400C00000000700FE
:1053200050C00091007070C0009100708231210067
:10533000319110B10070018101B100A1823132912F
:1053400010B101911110418141224F40F1060070CE
:1053500051C0019130181039833108D01831416F94
:105360003100319110B1831414165B680070251060
:1053700050C00091F4C3C0C02014036F3110410429
:1053800022C082312100319110B1633931104104C2
:1053900082C082312100319110B163393110A2C035
:1053A00082312100319110B1501015310514059250
:1053B00000703F6452C0311031066131C102426455
:1053C00012C13110213971065131E102426400707D
:1053D0008A65996588C0208250398039001E9F40B7
:1053E00041C001301814181A89C0308260398039E0
:1053F000001EA94041C001301914191A3C643691AD
:1054000010B1349110B154B0007154A064B0F08068
:105410000022AF404012B09032B05382533953391A
:1054200085643F6411C122C1426470C1C26811C168
:10543000C2C0426470C1C76850C000912772989280
:105440001516141642105310F0C121823131313932
:105450008139313151B070B272652772999270B250
:1054600062107310F0C331822131213981391B1050
:105470007265E2C08231608280318039020061B0A1
:105480000071329110B151A061B0277230C2F3683F
:1054900000008012B09032B0007050C000912772AE
:1054A000999262107310F0C3318221312139813910
:1054B00051B070B27E652772989270B2421053104C
:1054C000F0C1218231313139813931311A107E6593
:1054D00051A061B02772B0C018693F6401C122C1F8
:1054E000426401C1C2C04264151A3C64359110B1D6
:1054F00053828564C012B09032B000703F6472C2B3
:1055000081C0426422C111C1426402C011C142641F
:1055100062C031C3426462C311C1426402C311C19B
:105520004264538253398564E2C347641122404187
:1055300042C281C8426452C211C1426472C2E1CE09
:10554000426402C281C8426402C201C84264B0C05F
:10555000546900703F6442C201C8426452C211C023
:10556000426472C2E1C0426402C001C1426462C0CE
:1055700001C3426422C101C1426462C301C14264E9
:1055800002C301C1426453828564007061B000713E
:105590001214231C7A4D339110B10070329110B166
:1055A0007269007061B000711318321C8649329123
:1055B00010B10070339110B17E690070C2C04764B1
:1055C0001510C2C01216476441311514C0C0803195
:1055D00005145410A07804040070E6C0863101CC94
:1055E000161467106182F0C301041714007006736B
:1055F00005720B720E7250B00071818060B050A0C5
:1056000092804122C3458080F1C1100430160111FF
:105610000114016CD661D761D861D961DA61DB61AF
:10562000DC61DE61E061E261E461366339639180EF
:10563000F2C0210421318280422A12143216011153
:105640002114016CEE610B62F4613963EE610B624F
:10565000F4613963E661E661E661E661E661E661AF
:105660009464E661F964E6612A65E6615665E6617F
:105670004667E6611012B0900E7206730572101242
:105680003090A761F0CF3C67D4C103C0C0C354645D
:1056900040785091507810926078209270783092D3
:1056A0008078409290786092307890911082403962
:1056B000F00601101031101400924267E661BCA0A0
:1056C000E2A054A0F08050221546408000222B47D3
:1056D0000D6240A02D828D318D391082F1C01004F1
:1056E00009101A824A391A041082803910040E10E7
:1056F000AB10BC10C21063642972E0CF3C6713B0DA
:1057000003B0C86653B050B054B064B013B0A566CF
:105710001082E0223846AE660071418001222B479C
:10572000F08010224B46F022184764B031223842F4
:1057300063B0CE661082E02238467066386264B08C
:105740006F818F318F3DD0DFFF923C6700714180C8
:1057500001222B4764B0F0805022654263B0118271
:10576000C1226046CE6605671182D122524670661C
:105770005262618172818131813D8231823DC0EF0F
:10578000F19202933C670B62B081C091D381978202
:1057900090A2D3187F4EF30B1316E31CA44AC391B7
:1057A000E3813B149062BA1C8B46231E8B4AE31C98
:1057B0008B4E90B207228B4290A21B1A9662E31C7A
:1057C000A44AC391E3813B18AB1CA04E9B1CA24A88
:1057D000BC1CA442B2101082D0229D42F080102244
:1057E000A4466364A566A462AB1094629B109462A5
:1057F00000703082F1C0100463B00071A86ABC1060
:10580000E0B00070B281C291D28101821218518140
:10581000121841828131813D121CBF4AE2B032B080
:10582000B0DFF2923C67F1C72114C34E12C86291F7
:10583000729131B0E1B0007008C006C000C860913C
:10584000709100700182B081C091D0811018518197
:1058500010180614E18042828231823D201CE44A05
:10586000E2B02122E84632B00510A0DFF5923C6795
:105870002122E842E2A032B031824139F0C0010475
:10588000011EF642181610C01030081C04476010A4
:10589000103C0610F1C76114FA4E16C8669171816A
:1058A0008131813D161C014B769131B006C008C094
:1058B000007061818131813D408280390118F11C85
:1058C000174B0114B080C0221747BCB033B090EF23
:1058D000F1920F933C67007003A063B064B0EFB027
:1058E00056650071408000222B4764B02A65EFA006
:1058F0000071408000222B4764B003B038620182FF
:1059000062818231823D80EFF19202933C6703A075
:105910005665E661A2806364E66150B00071E6619D
:10592000E092D08200223D47C0B20070A080F022F9
:10593000594330B002C1623101C0A080001E524301
:10594000F0225343A0F56031603953632010101AE0
:10595000136F236E11161216546B0070AD040021E4
:10596000490400217D04002181040021110500214A
:105970009105002141060021F8B51047F8B50E4603
:1059800000210125AD0430470A48037800F00FF8E4
:105990009B070BD0124C2078FF2807D0FF212170E5
:1059A0000E490F24240220436031C882F8BDF8B5A7
:1059B000014800476B020021E54C0000094801E066
:1059C0000848000C064C05492278FF2A01D1CA7A02
:1059D00022706031C8827046801C00470062084017
:1059E000A4060021070F0808F0B4084770B5034665
:1059F0001546012906D0002906D0114A2846FFF78E
:105A0000BBFF70BD0F4800E00F480524834203D858
:105A10004008641E002CF9DCE34001204003181804
:105A2000820B012907D00649002380312846FFF761
:105A3000A5FFE0B270BD0249044B6C31F6E70000EF
:105A4000835C0000A0BC862300830D237406002124
:105A5000F8B51A4E0546716B1948CC09E401002DC2
:105A600011D01849097802290FD0007B044372B67F
:105A70000120154F4002B847114820380088C1095D
:105A8000C90704D016E0C07AF0E7407BEEE70F4983
:105A90007463CC61400AC0070CD001208003316BD5
:105AA000002D01D0014300E08143084631630749DE
:105AB000403948630020B84762B6F8BD8002002133
:105AC000880000219B0200217B3F000040400440F1
:105AD00010B5224A0021516121498968C90009D4C1
